:040000009BEF00F082
:10001800D8CF01F0E8CF02F0E0CF03F0FACF04F038
:10002800FBCF05F0E9CF06F0EACF07F0E1CF08F003
:10003800E2CF09F0D9CF0AF0DACF0BF0F3CF0CF00A
:10004800F4CF0DF0F6CF0EF0F7CF0FF0F8CF10F099
:10005800F5CF11F0F29420502110D8A40CD0D59EE1
:10006800000E176E1668000E196E1868000E1D6EC9
:100078003C0E1C6E1AD020042110D8A408D0000E03
:10008800176EF30E166E000E196ECB0E0CD0020E04
:1000980020182110D8A409D0000E176EF90E166E7C
:1000A800000E196EE60E186E00D016C0D7FF18C0E5
:1000B800D6FFFF0E1E241E6EFF0E1F201F6E1E5041
:1000C8001F10D8A411D024502510D8A404D0000E95
:1000D800256E010E03D0000E256E000E246E000E54
:1000E8001F6E050E1E6E00D011C0F5FF10C0F8FF80
:1000F8000FC0F7FF0EC0F6FF0DC0F4FF0CC0F3FFF2
:100108000BC0DAFF0AC0D9FF09C0E2FF08C0E1FF4F
:1001180007C0EAFF06C0E9FF05C0FBFF04C0FAFFFD
:1001280003C0E0FF02C0E8FF01C0D8FF100083EF62
:1001380001F0000E0F01386F000E0F01396F000E2D
:100148000F013A6F000E0F013B6F000E0F013C6F5D
:10015800000E806E000E816E000E826E000E836EA1
:10016800070E846E030E926E3F0E936E1F0E946EF2
:10017800C00E956E000E966E3C0E616EF19ED39881
:10018800D38AD38CD390D3829B9C0F0E756E7284C6
:100198007296729C729870907096718E7188728A3D
:1001A8001200000E156E000E146E9DEC00F0CAECE5
:1001B80001F0DAEC01F026D081B211D0D58E000E14
:1001C800216E010E206EFA0E00F0E82EFDD707D042
:1001D80019D066EC01F016D09EEC01F013D020C0C7
:1001E80012F021C013F01350000AD8A40BD01250FB
:1001F800000AD8B407D0010AD8B4EBD7030AD8B498
:10020800EBD700D014501510D8B4D6D79BEF00F018
:10021800800E736E00D0A4A8FED71CC073FF00D058
:10022800A4A8FED7000E736E00D0A4A8FED78094B1
:10023800000E236E000E226E1DBE0BD01D5004E171
:10024800470E1C5CD8A005D0000E216E020E206E51
:100258001200000E216E010E206E010E1C241C6E71
:10026800000E1D201D6E12001200800E736E00D04D
:10027800A4A8FED71CC073FF00D0A4A8FED7000E08
:10028800736E00D0A4A8FED7000E236E000E226E57
:1002980080941DBE06D01D5009E13D0E1C5CD8B0EF
:1002A80005D0000E216E010E206E1200000E216E88
:1002B800020E206EFF0E1C241C6EFF0E1D201D6EEC
:1002C8001200120080A602D0809602D0808600D04C
:1002D80024502510D8A407D022502310D8A403D026
:1002E800B5EC01F0120024042510D8A41200220451
:1002F8002310D8A412000CEC01F012001200256A99
:10030800246A236A226A216A206AAA0EF66E030EFC
:10031800F76E000EF86E00EE16F010EE0AF0090007
:10032800F5CFEEFFE550E150FAE1000EF86E00015E
:10033800D5EF00F024502510D8A407D02250231060
:10034800D8A403D0B5EC01F0120024042510D8A4D9
:10035800120022042310D8A4120039EC01F0120074
:100368001200900E736E00D0A4A8FED71CC073FFB5
:1003780000D0A4A8FED7640E736E00D0A4A8FED740
:10038800000E236E010E226E80841200F294D08E2D
:10039800F28EF28CF28AF194050ED56ED768D66883
:0E03A8001200F6003C0001003C0005001200AF
:020000040020DA
:08000000FFFFFFFFFFFFFFFF00
:020000040030CA
:0E000000FF29193CFFB400FF0FC00FE00F40B6
:00000001FF
